:020000040800F2
:1000000000000120A90E0008290E00082B0E000890
:100010002D0E00082F0E0008310E00080000000011
:10002000000000000000000000000000330E000887
:10003000350E000800000000370E0008390E0008D9
:10004000F90E0008F90E0008F90E0008F90E000874
:10005000F90E0008F90E00083D0E0008F90E000820
:10006000430E0008F90E0008F90E0008F90E00080A
:10007000F90E0008F90E0008F90E0008F90E000844
:10008000F90E0008F90E0008F90E00080000000043
:10009000000000000000000000000000F90E000851
:1000A000F90E0008F90E0008F90E0008F90E000814
:1000B000490E0008F90E0008F90E0008F90E0008B4
:1000C000F90E0008F90E0008F90E0008F90E0008F4
:1000D000F90E0008F90E0008F90E000800000000F3
:1000E000F90E0008F90E0008F90E000800000000E3
:1000F000000000000000000000000000F90E0008F1
:1001000000000000F90E0008F90E0008F90E0008C2
:1001100000000000000000000000000000000000DF
:10012000F90E0008F90E0008F90E0008F90E000893
:10013000F90E0008000000000000000000000000B0
:10014000000000000000000000000000F90E0008A0
:10015000F90E0008F90E0008F90E0008F90E000863
:10016000F90E0008F90E0008000000000000000071
:10017000000000000000000000000000000000007F
:1001800000000000F90E0008000000000000000060
:04019000F90E00085C
:1001A00010B5054C237833B9044B13B10448AFF3B1
:1001B00000800123237010BD880000200000000093
:1001C0008048000808B5034B1BB103490348AFF34F
:1001D000008008BD000000008C000020804800085E
:1001E00001F0FF01102A2BDB10F0070F08D010F8E8
:1001F000013B013A8B422DD010F0070F42B3F6D1EC
:10020000F0B441EA012141EA014122F007047FF004
:1002100000070023F0E80256083C85EA010586EA5B
:10022000010685FA47F5A3FA87F586FA47F6A5FA97
:1002300087F68EB9EED1F0BC01F0FF0102F00702A3
:1002400032B110F8013B013A83EA010313B1F8D14E
:100250000020704701387047002D06BF354603382F
:10026000073815F0010F07D1013015F4807F02BF68
:10027000013015F4C03F0130F0BC0138704700BFB9
:1002800053B94AB9002908BF00281CBF4FF0FF31FD
:100290004FF0FF3000F074B9ADF1080C6DE904CEF9
:1002A00000F006F8DDF804E0DDE9022304B0704751
:1002B0002DE9F047089D04468E46002B4DD18A4219
:1002C000944669D9B2FA82F252B101FA02F3C2F14C
:1002D000200120FA01F10CFA02FC41EA030E9440DD
:1002E0004FEA1C48210CBEFBF8F61FFA8CF708FBFE
:1002F00016E341EA034306FB07F199420AD91CEBD6
:10030000030306F1FF3080F01F81994240F21C8107
:10031000023E63445B1AA4B2B3FBF8F008FB10334F
:1003200044EA034400FB07F7A7420AD91CEB040484
:1003300000F1FF3380F00A81A74240F20781644454
:10034000023840EA0640E41B00261DB1D4400023D9
:10035000C5E900433146BDE8F0878B4209D9002D3D
:1003600000F0EF800026C5E9000130463146BDE8C7
:10037000F087B3FA83F6002E4AD18B4202D3824231
:1003800000F2F980841A61EB030301209E46002DE0
:10039000E0D0C5E9004EDDE702B9FFDEB2FA82F235
:1003A000002A40F09280A1EB0C014FEA1C471FFA93
:1003B0008CFE0126200CB1FBF7F307FB131140EA7A
:1003C00001410EFB03F0884208D91CEB010103F147
:1003D000FF3802D2884200F2CB804346091AA4B209
:1003E000B1FBF7F007FB101144EA01440EFB00FEDD
:1003F000A64508D91CEB040400F1FF3102D2A64542
:1004000000F2BB800846A4EB0E0440EA03409CE7E0
:10041000C6F12007B34022FA07FC4CEA030C20FA8D
:1004200007F401FA06F31C43F9404FEA1C4900FAAD
:1004300006F3B1FBF9F8200C1FFA8CFE09FB18112A
:1004400040EA014108FB0EF0884202FA06F20BD99D
:100450001CEB010108F1FF3A80F08880884240F2ED
:100460008580A8F102086144091AA4B2B1FBF9F031
:1004700009FB101144EA014100FB0EFE8E4508D92C
:100480001CEB010100F1FF346CD28E456AD90238B1
:10049000614440EA0840A0FB0294A1EB0E01A14296
:1004A000C846A64656D353D05DB1B3EB080261EB04
:1004B0000E0101FA07F722FA06F3F1401F43C5E9DE
:1004C000007100263146BDE8F087C2F12003D84014
:1004D0000CFA02FC21FA03F3914001434FEA1C4756
:1004E0001FFA8CFEB3FBF7F007FB10360B0C43EA48
:1004F000064300FB0EF69E4204FA02F408D91CEBF8
:10050000030300F1FF382FD29E422DD902386344F5
:100510009B1B89B2B3FBF7F607FB163341EA034195
:1005200006FB0EF38B4208D91CEB010106F1FF38E4
:1005300016D28B4214D9023E6144C91A46EA0046DB
:1005400038E72E46284605E70646E3E61846F8E66D
:100550004B45A9D2B9EB020864EB0C0E0138A3E7B6
:100560004646EAE7204694E74046D1E7D0467BE797
:10057000023B614432E7304609E76444023842E70F
:10058000704700BF0020064903460A5C0130B0F501
:10059000745F1344F9D1B3FBF0F0C0B2704700BFF1
:1005A0009801002070B52E4BADF5946D054606AA56
:1005B00003F1080618685968144603C40833B342A7
:1005C0002246F7D1186899889B792060A180A37191
:1005D00024490023012210A8CDE9023304938DF8A9
:1005E000143003F057F9044670BB1F4803F0BFFBFB
:1005F00010F0F70F044627D11C4E01240D2123468D
:10060000324602A803F0BAFC0AA902A803F08DFB47
:1006100018B30428F2D11A2202A99CA803F064F9A5
:10062000044688B9019001AB0F2206A99CA803F0EB
:100630005BFA01AB4FF47C5229469CA803F054FAB4
:1006400004469CA803F060FB00220649104603F014
:1006500021F920460DF5946D70BD0134CEE700BF41
:10066000A9480008B8480008984800089C480008B5
:1006700010B5064C2368092220469A6301F0BEFC9F
:1006800020460421BDE8104001F00EBF50010020BB
:10069000024A1368012BFCD0704700BFA80000205D
:1006A000024A1368002BFCD0704700BFA80000204E
:1006B00008B5FFF7F5FFBDE80840FFF7E9BF000008
:1006C00008B5FFF7EDFF094801224FF4806100F003
:1006D000A9FFFFF7EDFF054800224FF4806100F00D
:1006E000A1FFBDE80840FFF7D3BF00BF00040240F0
:1006F0002DE9F041244F06460D4602244FF0010833
:10070000FFF7CEFF08FA04F232400421384600F029
:1007100089FFFFF7CDFF04210022384600F082FF59
:10072000013CEDD207240126FFF7BAFF06FA04F2D6
:100730002A401548042100F075FFFFF7B9FF124861
:100740000022042100F06EFF013CEDD1FFF7A8FF6D
:100750000D4805F00102042100F064FF01220A485F
:10076000022100F05FFFFFF793FF074822460421B4
:1007700000F058FFFFF794FF034822460221BDE82E
:10078000F04100F04FBF00BF0004024008B5FFF782
:1007900087FF08480022012100F044FFFFF788FF8F
:1007A00001220448114600F03DFFBDE80840FFF774
:1007B0006FBF00BF00040240012210B5114604467D
:1007C000214800F02FFF204800224FF4806100F004
:1007D00029FF1D480022022100F024FF00221A48B0
:1007E000042100F01FFFFFF763FFFFF761FFFFF732
:1007F000CDFF9F210020FFF75BFFFFF759FFFFF7B9
:1008000077FF44F0E0010120FFF772FF0121022091
:10081000FFF76EFF00210320FFF76AFF012104208C
:10082000FFF766FF00210520FFF762FF0121062088
:10083000FFF75EFF03210720FFF75AFFFFF738FF9E
:10084000BDE81040FFF73CBF0004024010B594B073
:100850001422002109A803F089FB1422002103A817
:1008600003F084FB1F4B00220192196C41F0805170
:1008700019641B6C1C4903F080530193019B029285
:100880000B6823F4404343F400430B600B6803F40C
:1008900040430293029B012110230820CDE90B1352
:1008A00048230224CDE91003042308A8CDE90E4211
:1008B00008941294139300F0E3FE08B172B6FEE7B9
:1008C0000F23CDE903344FF48053CDE90630059072
:1008D000214603A801F0B2F808B172B6FEE714B0E1
:1008E00010BD00BF003802400070004080B58EB0DF
:1008F00000F028FBFFF7AAFF1422002107A803F04D
:1009000035FB00248C4B01941A6B8C4842F0040296
:100910001A631A6B02F004020192019A02941A6B94
:1009200042F080021A631A6B02F080020292029A6D
:1009300003941A6B42F001021A631A6B02F001026F
:100940000392039A04941A6B42F002021A631B6B1F
:1009500003F00203049301224FF40051049B00F0C2
:1009600061FE77482246102100F05CFE2246754861
:1009700040F2074100F056FE01254FF400536F4846
:1009800007A9CDE90735CDE9095400F07DFD4FF405
:1009900004136B48079507A9CDE90835042700F033
:1009A00073FD4FF444136648099407A90226CDE964
:1009B00007734FF0100900F067FD61480A9607A918
:1009C000CDE90795099400F05FFD5E4807A9CDE9E0
:1009D0000956CDE9075500F057FD40F20643594846
:1009E00007A94FF00308CDE90735CDE9094600F026
:1009F0004BFD4FF2F8335348099407A9CDE9073866
:100A000000F042FD4FF41F434D48099407A9CDE97A
:100A1000073800F039FD31462246062000F0E0FCA0
:100A2000062000F00FFD22464146082000F0D8FCC9
:100A3000082000F007FD4448444984624FF4827363
:100A4000C0E900134FF400763823C0E906630A2397
:100A5000C0E90244C0E90444C0E90844C36201F0AB
:100A600009F9064608B172B6FEE701F057FD4A469D
:100A7000314607A803F07AFA354C364B2661C4E9B3
:100A800000364FF00073A3602046334B267684F87F
:100A90002060E662A362E660E56184F8306065612B
:100AA00000F08AFA08B172B6FEE7099007A920465D
:100AB000CDE9078500F0F0FB054608B172B6FEE708
:100AC0001C22264CCDE9050001460DEB020003F087
:100AD0004DFA48234FF08042C4E9002320461223F8
:100AE000C4E90335A560A56101F0AEFB08B172B69B
:100AF000FEE7CDE9050005A9204601F0D7FC08B1C5
:100B000072B6FEE76023CDE9073009903A4607A99F
:100B100020460B9701F0F0FB054608B172B6FEE7E0
:100B2000204600F059F9FFF7A3FD0D4B1D70187812
:100B3000FFF742FEFEE700BF003802400008024017
:100B40000000024000040240F80000200030014094
:100B5000B0000020002001400100000F50010020E3
:100B6000AC0000202DE9F041334E3368012B0146E3
:100B700018D001285CD0042814D13048304C00F043
:100B80004BFD054638B32F482F4FDFF8C4800022B5
:100B90004FF4005100F046FD012523889BB2B3F5C8
:100BA0007C5F01D3BDE8F08127483560FFF780FD09
:100BB00000F0A8FA0021244800F01AFB3B68DA6C28
:100BC00023889BB2591C89B2D2B2218008F8032035
:100BD00000233360E1E7FFF7D5FC06462580FFF7E9
:100BE00067FDFFF7D3FD16F0800F184B0BD11A7875
:100BF0000A2A08D81A780132D2B21A70BDE8F04138
:100C00001878FFF7D9BD002211481A70FFF7CAFC07
:100C10000C4801224FF4005100F004FD00F0BEF931
:100C20000121084600F010FDBDE8F04100F0BDB91B
:100C3000064B0022E1E700BFA400002000000240B4
:100C40009840002000080240B0000020AC000020C6
:100C5000980100200368B3F1804F02BF014B0122CD
:100C60001A607047A80000200368B3F1804F02BFEC
:100C7000014B00221A607047A800002082B00C4B84
:100C8000002100915A6C42F480425A645A6C02F47A
:100C900080420092009A01911A6C42F080521A64CC
:100CA0001B6C03F080530193019B02B0704700BF9F
:100CB0000038024010B5044688B01422002103A871
:100CC00003F054F92268124B9A421ED103F58C337B
:100CD000002101915A6C0F4842F480725A645A6C98
:100CE00002F480720192019A02911A6B42F00102A1
:100CF0001A631B6B03F001030293029B0822032378
:100D000003A9CDE9032300F0BFFB08B010BD00BF6D
:100D1000002001400000024070B5044688B0142253
:100D2000002103A803F022F92268194B9A422DD121
:100D300003F58433002101915A6C164842F4805225
:100D40005A645A6C02F480520192019A02911A6B11
:100D500042F001021A631B6B03F001030293029B32
:100D6000022620230325052403A9CDE90336CDE976
:100D7000065400F089FBC023CDE9033605480794EB
:100D8000012303A9CDE9053500F07EFB08B070BD55
:100D900000300140000002400368B3F1804F07B506
:100DA00016D1002203F50E330192196C41F00101B6
:100DB00019641B6C03F00103019311461C20019B75
:100DC00000F00EFB1C2003B05DF804EB00F03ABB12
:100DD00003B05DF804FB000010B5044686B0142291
:100DE000002101A803F0C2F82368B3F1804F14D1A9
:100DF000002300930A4B0B481A6B42F001021A635E
:100E00001B6B03F001030093009B0223CDE9013328
:100E100001A90123059300F037FB06B010BD00BF08
:100E20000038024000000240FEE7FEE7FEE7FEE772
:100E3000FEE770477047704700F09EB8012000F051
:100E4000F7BB042000F0F4BB014801F00CB900BF6F
:100E5000500100200B4A116810B5034609B90A4930
:100E60001160106809490A4C0344091B8B4206D9DA
:100E700003F052F80C2303604FF0FF3010BD1360F5
:100E8000FCE700BF9C400020F8400020000001204B
:100E900000040000034AD2F8883043F47003C2F81B
:100EA0008830704700ED00E0DFF834D00D480E497F
:100EB0000E4A002302E0D458C4500433C4188C42B4
:100EC000F9D30B4A0B4C002301E013600432A24219
:100ED000FBD3FFF7DFFF03F025F8FFF707FD7047AF
:100EE0000000012000000020880000209C4900082C
:100EF00088000020F8400020FEE7000038B50E4AC8
:100F00000E4B054618784FF47A73B3FBF0F3106874
:100F1000B0FBF3F000F0A4FA044658B90F2D09D83D
:100F2000024629464FF0FF3000F05AFA044B2046A3
:100F30001D6038BD0120FCE70000002004000020F7
:100F40000800002008B50B4B1A6842F400721A60C2
:100F50001A6842F480621A601A6842F480721A6059
:100F6000032000F02BFA0F20FFF7C8FFFFF786FEE3
:100F7000002008BD003C0240034A044B11681B7866
:100F80000B441360704700BFA04000200400002005
:100F9000014B1868704700BFA04000204FF0E022CE
:100FA000136923F00203136170474FF0E0221369C5
:100FB00043F002031361704738B50446002800F07F
:100FC0009B80056C25B9FFF775FE656484F83C507D
:100FD000236CDB0600F18E80236C23F4885323F00E
:100FE000020343F002032364444B5A6822F4403264
:100FF0005A605A6861680A435A60236821695A68CE
:1010000022F480725A605A6842EA01225A605A6891
:10101000A16822F040725A605A680A435A609A687E
:10102000E16822F400629A609A680A439A6034493F
:10103000A26A8A4252D0996821F0706199609968D9
:101040000A439A609A68E16A22F040529A609A686C
:101050000A439A609A6822F002029A609A68217E96
:1010600042EA41029A6094F82020002A3ED05A6851
:10107000616A42F400625A605A6822F460425A601F
:101080005A68013942EA41325A60DA6AE16922F467
:101090007002DA62DA6A013942EA0152DA629A6867
:1010A00022F400729A609A6894F8301042EA412261
:1010B0009A609A68616922F480629A609A68002056
:1010C00042EA81229A606064236C23F0030343F0B8
:1010D00001032364002384F83C3038BD9A6822F071
:1010E00070629A609A6822F04052B2E75A6822F41D
:1010F0000062C9E70120EDE70120EEE7002301408F
:101100000100000F82B00023019390F83C30012BC6
:10111000024660D00168012380F83C308B68D80714
:101120000CD58B6813F001031AD1116C41F010013A
:101130001164516C41F0010151644AE08B68284808
:1011400043F001038B60274B1B68B3FBF0F303EB09
:1011500043030193019B002BE3D0019B013BF8E784
:10116000136C23F4E06323F0010343F480731364EE
:101170004B685B0541BF136C23F4405343F4805329
:101180001364136C13F480531CBF536C23F00603D9
:10119000536400206FF0220382F83C000B60124B76
:1011A0005A6812F01F0209D1886810F0405014D11B
:1011B0008B6843F080438B6002B070470B4B9942C1
:1011C000FAD18B6813F04053F6D18A6842F080421E
:1011D0008A601846F0E70220EEE71046ECE700BF11
:1011E00040420F0000000020002301400020014089
:1011F00003689A68520570B504460D460BD59B6886
:10120000DE0508D5036C43F020030364002380F857
:101210003C30012070BDFFF7BBFE064623681A680C
:1012200091070CD56FF012021A60226C42F4007222
:1012300022649A6812F0405F17D00020EAE7681C29
:10124000EDD065B923681B6813F00203E6D1226C68
:1012500084F83C3042F0040222640320DAE7FFF70E
:1012600097FE801BA842EDD8D8E7207E0028E4D165
:10127000DA6A12F4700F02D09B685A05DDD4236C31
:1012800023F480732364236CDB04D6D4236C43F0F3
:1012900001032364BEE70000F7B50023019390F833
:1012A0003C30012B66D0012380F83C300D68036888
:1012B0008E68092DACB231D904EB4402DF681E3AC6
:1012C0004FF0070C0CFA02FC27EA0C07DF60DF681E
:1012D00006FA02F23A43DA604968062901EB810214
:1012E0002CD8596B053A1F26964021EA060159630E
:1012F000596B04FA02F20A435A632C4A934207D10B
:10130000122D39D1D2F8043343F48003C2F80433E8
:10131000002380F83C30184603B0F0BD1F6905EB90
:1013200045024FF0070C0CFA02FC27EA0C071F617C
:101330001F6906FA02F23A431A61CDE70C294FF011
:101340001F010BD81E6B233A914026EA0101196355
:10135000196B04FA02F20A431A63CEE7DE6A413AD5
:10136000914026EA0101D962D96A04FA02F20A43DD
:10137000DA62C2E70220CFE7A5F11003012BC7D83C
:101380000B4A5368102D43F400035360C0D1094B3E
:10139000094A1B68B3FBF2F30A2253430193019BF2
:1013A000002BB5D0019B013BF8E700BF00200140B6
:1013B000002301400000002040420F000749CA6896
:1013C00022F4E0620302120403F4E063120C1343FC
:1013D00043F0BF6343F40033CB60704700ED00E09F
:1013E000164B30B5DC68C4F30224C4F10705231D95
:1013F000042D28BF0425062B4FF0FF338CBF033C80
:10140000002403FA05F521EA0501A34022EA0302BC
:10141000A140002841EA0203ACBF00F16040084A45
:101420004FEA0313B8BF00F00F00DBB2AABF00F50C
:101430006140135480F8003330BD00BF00ED00E080
:1014400014ED00E0002808DB4209012300F01F0032
:1014500003FA00F0014B43F82200704700E100E07E
:101460000138B0F1807F0BD24FF0E023054A58617C
:10147000F02182F823100020072298611A6170473A
:101480000120704700ED00E02DE9F74FDFF884916F
:101490005E4A00230D6801249C4004EA050CAC431D
:1014A00040F0A5804D6805F003044FEA4308032689
:1014B000671E06FA08F6012F6FEA060634D8876819
:1014C00007EA060ECF6807FA08F747EA0E078760B3
:1014D000476827EA0C0EC5F300179F4047EA0E073E
:1014E0004760C76807EA060E8F6807FA08F747EAF9
:1014F0000E07022CC76019D14FEAD30A00EB8A0A03
:1015000003F0070BDAF820704FEA8B0B4FF00F0E49
:101510000EFA0BFE27EA0E0E0F6907FA0BF747EAE1
:101520000E07CAF8207001E0032CDAD1076804FA2C
:1015300008F43E40264315F4403F066057D04FF074
:10154000000ACDF804A0D9F84460314C46F4804636
:10155000C9F84460D9F8446006F480460196019EBB
:1015600023F0030606F1804606F59C3603F0030ED1
:10157000D6F808804FEA8E0E0F2707FA0EF7A04222
:1015800028EA07073AD004F58064A04238D004F571
:101590008064A04236D004F58064A04234D004F5C3
:1015A0008064A0420CBF0424072404FA0EF43C43D8
:1015B000B46094686FEA0C06EF0254BF34404CEA02
:1015C00004049460D468AF0254BF34404CEA04046D
:1015D000D4605468AF0354BF34404CEA04045460F0
:1015E0001468ED0354BF34404CEA04041460013322
:1015F000102B7FF44FAF03B0BDE8F08F5446D4E713
:101600000124D2E70224D0E70324CEE7003C0140C6
:1016100000000240003802400369194214BF012053
:10162000002070470AB1816170470904FBE70000A0
:10163000044A5169014208B502D05061FFF792FA9D
:1016400008BD00BF003C01400B4A136823F00303B0
:1016500018430A4B10601A69012942F004021A610A
:1016600005D130BF1A6922F004021A61704740BFE9
:1016700020BF20BFF6E700BF0070004000ED00E093
:101680002DE9F341044640B30368DD0710D4236815
:1016900098075ED423681A0700F1A08023685B07CF
:1016A00000F1C080A069002840F0288100202BE0D4
:1016B0008F4B9A6802F00C02042A07D09A6802F055
:1016C0000C02082A0BD15A68510208D5884B1B68B6
:1016D0009A03DCD56368002BD9D1012014E062683D
:1016E000B2F5803F13D11A6842F480321A60FFF7D6
:1016F0004FFC7F4E054633689B03C8D4FFF748FC78
:10170000401B6428F7D9032002B0BDE8F081784D72
:10171000B2F5A02F2B6807D143F480232B602B68F0
:1017200043F480332B60E2E723F480332B602B6893
:1017300023F480232B60002AD9D1FFF729FC064629
:101740002B689F03A3D5FFF723FC801B6428F7D9E0
:10175000D9E7674B9A6812F00C0F07D09A6802F02D
:101760000C02082A11D15B685E020ED4604A13682D
:101770009D0702D5E368012BAFD11368216923F0DF
:10178000F80343EAC103136084E7E268594BB2B13E
:1017900001221A60FFF7FCFB554D06462B6898079F
:1017A00007D52B68226923F0F80343EAC2032B60B4
:1017B00070E7FFF7EDFB801B0228EFD9A3E71A6063
:1017C000FFF7E6FB4A4E0546336899077FF562AF9F
:1017D000FFF7DEFB401B0228F6D994E76269454B10
:1017E00082B10122C3F8802EFFF7D2FB404E05469E
:1017F000736F9F073FF552AFFFF7CAFB401B0228EC
:10180000F6D980E7C3F8802EFFF7C2FB384E0546B5
:10181000736F98077FF542AFFFF7BAFB401B0228B2
:10182000F6D970E7324B1A6C12F0805228D101922F
:101830001A6C42F080521A641B6C03F080530193BF
:10184000019B01272C4D2B68D9051BD5A368284D7A
:10185000012B27D12B6F43F001032B67FFF798FB78
:10186000234E054641F28838336F9B0739D5002F48
:101870003FF418AF1E4A136C23F08053136411E732
:101880000027DFE72B6843F480732B60FFF780FBB2
:1018900006462B68DA05D9D4FFF77AFB801B0228AD
:1018A000F7D930E7052B04D12B6F43F004032B67E6
:1018B000D0E72A6F22F001022A672A6F22F0040281
:1018C0002A67002BCAD1FFF763FB41F2883806462E
:1018D0002B6F9807CBD5FFF75BFB801B4045F7D9F3
:1018E00011E7FFF755FB401B4045BDD90BE700BF93
:1018F000003802400000474200700040364DAB689F
:1019000003F00C03082B3DD0344B002202281A664A
:101910002BD1FFF73DFB06462B6899011FD4D4E974
:1019200007321343626A43EA8213E26A43EA0263BC
:10193000A26A5208013A43EA02436B60274B264DE4
:1019400001221A66FFF724FB04462B689A013FF533
:10195000ADAEFFF71DFB001B0228F6D9D3E6FFF75B
:1019600017FB801B0228D7D9CDE6FFF711FB0446F1
:101970002B689B017FF59AAEFFF70AFB001B02283C
:10198000F6D9C0E601283FF4BFAE6B68E26903F404
:10199000800191427FF4A1AE216A03F03F028A42A6
:1019A0007FF49BAE616A47F6C0721A40B2EB811FAA
:1019B0007FF493AEA26A520803F44031013AB1EBCE
:1019C000024F7FF48AAEE26A03F07063B3EB026FFA
:1019D0003FF46CAE81E600BF003802400000474291
:1019E000134908B58B6803F00C03042B1CD0082B9B
:1019F0001CD14A684B68496813F4800314BF0D4832
:101A00000D48C1F3881118BF002302F03F02A1FB6B
:101A10000001FEF735FC064B5B68C3F3014301335D
:101A20005B00B0FBF3F008BD0248FCE70248FAE7B0
:101A30000038024040787D010024F4002DE9F04197
:101A40000D46044610B90120BDE8F081444B1A68E8
:101A500002F007028A4228D3226897072DD4D007C4
:101A600041D43F4B1A6802F00702AA4266D82268A6
:101A700051076CD4130707D53A4A2169936823F4B8
:101A8000604343EAC1039360FFF7AAFF354B364A30
:101A90009B68C3F30313D35CD840344B1860344BBA
:101AA0001868FFF72BFA0020CEE7CAB21A701B683D
:101AB00003F007038B42C6D1CEE72A4B12F0040F86
:101AC0001EBF996841F4E0519960160742BF9968BA
:101AD00041F4604199602349A0688B6823F0F003CA
:101AE00003438B60BBE762681E4B012A1CD11B6855
:101AF00013F4003FA7D01B4EB36823F00303134336
:101B0000B360FFF745FA41F288380746B368626868
:101B100003F00C03B3EB820FA3D0FFF739FAC01B1D
:101B20004045F3D903208FE7911E01291B6802D895
:101B300013F0007FDEE713F0020FDBE7EAB21A7062
:101B40001B6803F00703AB427FF47DAF8FE70549C5
:101B5000E0688B6823F4E05303438B608AE700BF9F
:101B6000003C024000380240B94800080000002054
:101B7000080000202DE9F3411D4617468846064619
:101B8000FFF706FA3D442C1AFFF702FA224B1B68B6
:101B9000C3F3CB330546634332680193936838EA55
:101BA000030301D000202DE07B1CF7D0FFF7F0F9F4
:101BB000401BA04229D333685A6822F0E0025A60E1
:101BC0007268B2F5827F0AD1B268B2F5004F02D0D6
:101BD000B2F5806F03D11A6822F040021A60B26A2F
:101BE000B2F5005F07D11A6822F400521A601A6831
:101BF00042F400521A60012386F85130002386F81F
:101C00005030032002B0BDE8F081019B002B019B06
:101C100008BF0024013BBFE70000002037B5134692
:101C2000124A1568124AB5FBF2F54FF47A72554321
:101C300042680195B2F5827F04460BD10A468021A5
:101C4000FFF798FF78B1636D43F0200363650320CD
:101C500003B030BD019B33B1019B013B019323686D
:101C60009B681B06F6D40020F2E700BF00000020AE
:101C700000366E0110B50446002855D0436A002B8B
:101C80004ED14268B2F5827F00D0C3610023A362C7
:101C900094F8513003F0FF0223B984F85020204615
:101CA000FFF73AF82168A068A269022384F851304E
:101CB0000B6823F040030B60636800F4044003F4F6
:101CC00082730343E06800F400600343206900F07E
:101CD00002000343606900F00100034302F4007056
:101CE0000343E06900F038000343206A00F08000FD
:101CF0000343A06A00F4005003430B60636A120CB4
:101D000003F0100302F004021A434A60CB6923F483
:101D10000063CB6100200123606584F8513010BD61
:101D20000023C0E90433B1E70120F8E72DE9F743C8
:101D30001E4690F850300A9F012B04460D469146EE
:101D400000F0E680012380F85030FFF721F994F885
:101D500051306268012B8046D9B20AD0B2F5827F39
:101D600040F0D480A368002B40F0D080042940F0DC
:101D7000CD80002D40D0B9F1000F3DD0002E3BD0DA
:101D800094F85130C4F83890042B1CBF052384F814
:101D9000513000236365C4E910332368E687E68683
:101DA0001968A687490658BF1968256358BF41F0CE
:101DB0004001A68658BF1960E168B1F5006F52D1A5
:101DC0000AB1012E07D135F8022BDA60E38E2563C4
:101DD000013B9BB2E3860125E38E9BB273B9E38F8F
:101DE0009BB25BB9424639462046FFF717FF0028F1
:101DF00000F081802023636501202BE021688B683F
:101E00009E070DD5E38E9BB253B14DB1236B33F8D2
:101E1000022BCA602363E38E013B9BB2E38600255D
:101E20008A6812F001020CD0E38F9BB24BB1A36B16
:101E3000C96823F8021BA363E38F013B9BB2E387CE
:101E40001546FFF7A5F8A0EB0800B842C4D3781CEC
:101E5000C2D00320012384F85130002384F850308D
:101E600003B0BDE8F0830AB1012E08D12A781A73B5
:101E7000236B01332363E38E013B9BB2E386012591
:101E80002DE02268936899070ED5E38E9BB25BB173
:101E900055B1236B1B781373236B01332363E38EDC
:101EA000013B9BB2E38600252268916811F0010195
:101EB0000DD0E38F9BB253B1A36BD2681A70A36BA2
:101EC0000133A363E38F013B9BB2E3870D46FFF72A
:101ED0005FF8A0EB0800B8420AD37B1CB9D1E38EAF
:101EE0009BB2002BCDD1E38F9BB2002BC9D179E7F8
:101EF000002FF4D1ADE7A368002BABD1236801908C
:101F0000DA6801929B680193019BA3E70220A1E795
:101F10000220A5E7036A23F001030362036A70B598
:101F2000446882690D6822F073022A438D6823F0A9
:101F300002032B430A4DA8420BD1CD6823F00803BE
:101F40002B43D1E9055624F44074354323F00403B0
:101F50002C43446082614A684263036270BD00BFE3
:101F600000000140036A23F480730362036A70B5C2
:101F70004468C2690D6822F073022A438D6823F415
:101F8000007343EA05230B4DA8420DD1CD6823F41D
:101F9000006343EA0523D1E9055624F44054354350
:101FA00023F4806344EA05144460C2614A68C26352
:101FB000036270BD00000140036A23F48053036292
:101FC000036A30B54468C2690D6822F4E64242EA09
:101FD00005228D6823F4005343EA0533064DA842D9
:101FE00002BF4D6924F4804444EA85144460C26110
:101FF0004A680264036230BD0000014090F83D3041
:10200000012B28D1022380F83D300368DA6842F0C2
:102010000102DA60114A934212D0B3F1804F0FD01F
:10202000A2F57C4293420BD002F58062934207D026
:1020300002F58062934203D002F59A32934204D1B2
:102040009A6802F00702062A03D01A6842F00102D9
:102050001A60002070470120704700BF0000014057
:1020600070477047704703681A69910710B50446B6
:102070000ED5DA6892070BD56FF002021A610122C1
:1020800002779B699B0777D0FFF7EBFF002323774D
:1020900023681A69500710D5DA6851070DD56FF01B
:1020A00004021A61022222779B6913F4407F2046C2
:1020B00068D0FFF7D6FF0023237723681A69120739
:1020C0000FD5DA6810070CD56FF008021A610422E8
:1020D0002277DB69990720465AD0FFF7C2FF002319
:1020E000237723681A69D20610D5DA68D0060DD591
:1020F0006FF010021A6108222277DB6913F4407F27
:1021000020464BD0FFF7ADFF0023237723681A69E1
:10211000D10708D5DA68D20705D56FF001021A6138
:102120002046FEF7A1FD23681A69100608D5DA6873
:10213000110605D56FF080021A61204600F0EDF916
:1021400023681A69520608D5DA68500605D56FF07B
:1021500040021A612046FFF785FF23681A6991063D
:1021600022D5DA6892061FD56FF0200220461A6148
:10217000BDE8104000F0D0B9FFF772FF2046FEF72F
:1021800069FD83E7FFF76CFF2046FEF763FD92E7EA
:10219000FFF766FF2046FEF75DFDA0E7FFF760FF53
:1021A0002046FEF757FDAFE710BD0000244A036844
:1021B00090420ED0B0F1804F0BD0A2F57C429042FD
:1021C00007D002F58062904203D002F5806290420F
:1021D00015D14A6823F070031343194A904219D06D
:1021E000B0F1804F16D0A2F57C42904212D002F599
:1021F000806290420ED002F5806290420AD0114A6D
:10220000904207D002F58062904203D002F58062CE
:10221000904203D1CA6823F4407313434A6923F000
:102220008003134303608B68C3620B688362044BB3
:10223000984204BF0B69036301234361704700BFE9
:10224000000001400040014010B5044630B390F852
:102250003D3003F0FF021BB980F83C20FEF79CFDE7
:102260000223206884F83D30211DFFF79FFF0123E2
:1022700084F84630002084F83E3084F83F3084F8FB
:10228000403084F8413084F8423084F8433084F898
:10229000443084F8453084F83D3010BD0120FCE71F
:1022A000036A23F010030362036A70B5446882690D
:1022B0000D6822F4E64242EA05228D6823F02003ED
:1022C00043EA05130B4DA8420DD1CD6823F08003DE
:1022D00043EA0513D1E9055624F44064354323F05D
:1022E000400344EA8504446082614A688263036271
:1022F00070BD00BF0000014070B590F83C30012B6C
:10230000054653D00120082A85F83C003DD006D868
:10231000C2B1042A28D0002385F83C3070BD0C2AB5
:10232000F9D12868FFF748FE2B680969DA6942F499
:102330000062DA61DA6922F48062DA61DA6942EA1B
:10234000012231E02868FFF7E5FD2B6809699A69E9
:1023500042F008029A619A6922F004029A619A692D
:102360000A439A610020D6E72868FFF799FF2B6897
:1023700009699A6942F400629A619A6922F480625A
:102380009A619A6942EA0122EBE72868FFF7EAFDC1
:102390002B680969DA6942F00802DA61DA6922F029
:1023A0000402DA61DA690A43DA61DBE70220B5E7A1
:1023B000036A01F01F0110B501248C4023EA0403D5
:1023C0000362036A8A401A43026210BD10B50446D4
:1023D00029B990F83E30012B30D0012010BD0429DE
:1023E0000BD190F83F30012BF7D10223226884F8FB
:1023F0003F30D36843F0040327E008290BD190F85D
:102400004030012BE9D10223226884F84030D368A0
:1024100043F0080319E090F84130012BD8B2DCD129
:102420000429E2D00829EED002230C2984F8413097
:10243000D4D12268D36843F0100306E00223026877
:1024400080F83E30D36843F00203D3602068012255
:10245000FFF7AEFF2368124A93420AD15A6C42F446
:1024600000425A649A6802F00702062A13D100203B
:10247000B4E7B3F1804FF5D00A4A9342F2D002F5A7
:1024800080629342EED002F580629342EAD002F578
:102490009A329342E6D01A6842F001021A60E6E7E7
:1024A0000000014000040040FFF790BF30B590F8F5
:1024B0003C30012B4FF002032AD080F83D300368F6
:1024C0000D685C689A6824F070042C435C60114CC1
:1024D000A34212D0B3F1804F0FD0A4F57C44A342A5
:1024E0000BD004F58064A34207D004F58064A342B6
:1024F00003D004F59A34A34204D1496822F0800243
:102500000A439A60012380F83D30002380F83C3074
:10251000184630BD000001407047704708B50349B8
:10252000034801F0F5FC034B187008BDA4400020DF
:102530000C000020A84000200020704700F006B9E1
:1025400000F0A6B900F0AEB900F0ECB900F03ABA6C
:102550007FB532238DF80F0000930DF11702012390
:102560000DF10F010348FFF7E1FB9DF8170007B0DD
:102570005DF804FBF800002070B50546FEF708FD85
:102580000646FF20FFF7E4FFFF28044604D0FEF7CD
:10259000FFFC831BAB42F4D3A4F1FF035842584124
:1025A00070BD000008B5054801221021FFF73AF878
:1025B000BDE80840FF20FFF7CBBF00BF000002408E
:1025C00010B5002210210948FFF72CF8FF20FFF773
:1025D000BFFF4FF4FA70FFF7CFFF044618B9FFF7BB
:1025E000E1FF204610BD0124FBE700BF00000240D0
:1025F000020638B504460D4607D500213720FFF7FF
:10260000F7FF01282BD804F07F040C2C28D144F0CC
:102610004000FFF79DFF280EFFF79AFFC5F3074024
:10262000FFF796FFC5F30720FFF792FFE8B2FFF729
:102630008FFFECB1082C14BF01208720FFF788FF23
:102640000C2C02D1FF20FFF783FF0A24FF20FFF7A5
:102650007FFF030603D5013C14F0FF04F6D138BD1B
:10266000FFF7A0FFFFF7ACFF0028D0D1FF20F6E76F
:102670009520E3E738B504464FF4FA700D46FFF7AE
:102680007BFFD8B12846FFF763FFFD2D17D0651EED
:1026900004F2FF1415F8010FFFF75AFFA542F9D114
:1026A000FF20FFF755FFFF20FFF752FFFF20FFF746
:1026B0004FFF00F01F00431F5842584138BD012012
:1026C000FCE7000010B50446FEF762FC024B186000
:1026D000024B1C6010BD00BFB0400020AC40002089
:1026E00008B5FEF755FC054B1B68C01A044B1B6868
:1026F00098422CBF0020012008BD00BFB040002040
:10270000AC40002038B50446C8200D46FFF7DAFF7C
:10271000FF20FFF71DFFFF2805D1FFF7E1FF00288D
:10272000F6D1002038BDFE28FBD12544FF20FFF75D
:102730000FFF04F8010BA542F8D1FF20FFF708FFB7
:10274000FF20FFF705FF0120ECE700002DE9F34132
:10275000002840F095804B4D2B789B0704D52878B6
:10276000C0B202B0BDE8F081474F3A68136823F069
:10277000380343F0300313600A24FF20013CFFF7C5
:10278000E7FE14F0FF04F8D121462046FFF730FFA2
:102790000128064670D14FF47A70FFF793FF4FF48B
:1027A000D5710820FFF724FF012849D101AEB046BA
:1027B0000424FF20FFF7CCFE013C14F0FF0408F8CE
:1027C000010BF6D19DF80630012B55D19DF807304D
:1027D000AA2B51D1FFF784FF30B14FF08041A920DF
:1027E000FFF706FF0028F5D1FFF77AFF002843D056
:1027F00000213A20FFF7FCFE00283DD10424FF20F1
:10280000FFF7A6FE013C14F0FF0406F8010BF6D119
:102810009DF8043013F0400F14BF0C2404241B4B0C
:102820001C70FFF7BFFE4CB33A68136823F03803FF
:1028300043F0100313602B7803F0FE032B708EE738
:102840002146A920FFF7D4FE022836BF0224012426
:10285000A926FFF745FF28B100213046FFF7C8FE43
:102860000028F6D1FFF73CFF30B14FF40071102083
:10287000FFF7BEFE0028D2D00024D0E70123DDE719
:1028800001206EE720000020F8000020A940002071
:1028900018B9034B1878C0B270470120704700BFC9
:1028A0002000002038B50D461C46114688BB83B376
:1028B0001A4B1B78DA072ED4194B1B781B0758BF0D
:1028C0004902012C11D11120FFF792FE38B94FF4C3
:1028D00000712846FFF716FFB0FA80F46409FFF78D
:1028E00061FE201E18BF012038BD1220FFF780FEB8
:1028F0000028F4D14FF400712846FFF703FF18B108
:10290000013C05F50075F5D100210C20FFF770FEA4
:10291000E5E70420E8E70320E6E700BF2000002009
:10292000A940002070B50E4615461C4600283FD130
:10293000002B3DD0214B1A78D0073BD41B78590788
:102940003AD41F4B1B781A0758BF6D02012C11D1C6
:1029500029461820FFF74CFE40BBFE213046FFF70A
:1029600089FEB0FA80F46409FFF71CFE201E18BF30
:10297000012070BD13F0060F03D021469720FFF70A
:1029800037FE29461920FFF733FE0028ECD1FC2141
:102990003046FFF76FFE18B1013C06F50076F6D120
:1029A000FD210020FFF766FE0028DDD10124DBE7D2
:1029B0000420DEE70320DCE70220DAE72000002025
:1029C000A94000207FB51546002840F0DA806F4B03
:1029D0001B78D80700F1D780042900F2D080DFE807
:1029E00001F00309CE4A9400FFF7EAFDB0FA80F443
:1029F000640906E000210920FFF7FAFD044628B12A
:102A00000124FFF7CFFD204604B070BD10216846B9
:102A1000FFF778FE0028F3D09DF800309DF80810ED
:102A20009DF809009B09012B9DF8073009D11A0474
:102A300002F47C1200EB012101320A4492022A6066
:102A4000DFE79DF806209B00920203EB911302F44E
:102A5000406213449DF805209DF80A1002F00F0211
:102A600002EBD112410001F006010A440133073A9A
:102A700093402B60C5E7464E317811F004011BD01E
:102A800000218D20FFF7B4FD0028B9D1FF20FFF70A
:102A90005FFD10216846FFF735FE0028B0D03024D6
:102AA000FF20FFF755FD601E10F0FF04F8D19DF8E0
:102AB0000A301A091023DBE70920FFF799FD0446C5
:102AC00000289DD110216846FFF71CFE002897D0F2
:102AD00032789DF80A309DF80B1092070AD59DF8C0
:102AE0000D205B0003F07E0303EBD1139209013349
:102AF000013ABDE7CA0002F01802C3F3840302EBF7
:102B00005112013302FB0333B3E7214E337813F044
:102B1000060F3FF475AF6A460B210020FFF752FF06
:102B200000287FF46DAF9DF80A309DF8002003F077
:102B3000400353EA92133FF463AFD5E900143378AE
:102B40001B0758BF49024FF0200058BF6402FFF72F
:102B50004FFD00287FF454AF21462120FFF748FDA8
:102B6000014600287FF44CAF2620FFF741FD0028E6
:102B70007FF446AF47F23050FFF7FEFC36E70424FF
:102B80003FE704243FE703243DE700BF2000002087
:102B9000A9400020034B1A1803EB8003107A5B68EE
:102BA0005B681847DC400020064B1A5C42B90122E2
:102BB0001A541A1803EB8003107A5B681B681847D5
:102BC00000207047DC40002030B4054C251804EB91
:102BD000800460688468287AA44630BC604700BFDF
:102BE000DC40002030B4054C251804EB80046068FC
:102BF000C468287AA44630BC604700BFDC4000208F
:102C0000054B10B41C1803EB8003207A5B685DF859
:102C1000044B1B69184700BFDC4000200068704768
:102C20000B0A017043700B0C090E8370C170704762
:102C3000024400F8011B9042FBD170471B4A136805
:102C400030B563B104689C4207D1546883689C42E4
:102C500003D1946843699C4220D0002400E0012401
:102C60001369CBB10568AB4207D1556983689D42B2
:102C700003D1956943699D4215D06CB902290CBFF7
:102C80000020122030BD02EB03139B89B3F5807F37
:102C900014BF00201020F5E70020F3E700230029EF
:102CA000F1D01020EEE70123F9E700BFB840002083
:102CB0001F4AF0B5136806689E4207D155688468BC
:102CC000A54203D145699468A54222D01469B44253
:102CD00007D157698568AF4203D197694569AF420B
:102CE00021D00BB10CBB01231D0102EB0314565183
:102CF00085684069A06000206560A08181B902EB11
:102D000003118989013189B202EB0312581C9181A8
:102D1000F0BD00230029F2D002EB0311898921B90B
:102D20004FF48071F0E70123F4E70020F0E700BFE3
:102D3000B84000200138012815D80C4A010102EBE7
:102D400000108389B3F5807F04D1002383810020A4
:102D500050507047002BFAD0013B9BB28381002B6F
:102D6000F5D0002070470220704700BFB840002017
:102D7000054B1A68904204BF00221A601A699042FB
:102D800004BF00221A617047B8400020436902392D
:102D9000023B8B4283BF4389806A01FB0300002012
:102DA0007047C36A026804335289490AB1FBF2F1E1
:102DB000186830B1814202D3091A0833F8E758681D
:102DC00008447047C2F307238A76CB760378032B37
:102DD00001BF120C0A75120A4A757047026810B5D5
:102DE00052B111460B4611F8014B202C0CD93A2C4C
:102DF000F8D1511C8B4202D04FF0FF3005E0127821
:102E0000302AF9D101330360002010BD38B50D46DA
:102E1000044618B9092000232B6038BD0368002B35
:102E2000F8D01A78002AF5D08188DA889142F1D159
:102E30005878FFF7AFFE10F00100EBD12368EBE705
:102E400001380A4411F8013B00F8013F9142F9D1E1
:102E500070472DE9F041C66A00F1300804460123AD
:102E6000407832464146FFF7BDFE0546A8B9236AC1
:102E7000A269E070F31A934202D2A778012F02D818
:102E80002846BDE8F081A36960781E4432460123DC
:102E90004146FFF7A7FE013FF0E70125F0E7C378C1
:102EA0000BB1FFF7D6BF1846704738B5C36A8B42DF
:102EB00005460C4610D0FFF7F2FF60B9224668784D
:102EC000012305F13001FFF77FFE00281CBF4FF002
:102ED000FF340120EC6238BD0020FCE7002310B570
:102EE000C3704FF0FF33C3620446FFF7DEFF0346B3
:102EF00018BBB4F82E124AF6552291421FD194F80D
:102F00003020E92A05D0226B0F4902F0FF128A42D5
:102F100017D104F16600FFF781FE0C4A20F07F40D4
:102F2000904208D004F18200FFF778FE02F14C5283
:102F3000904218BF0223184610BD0423FBE7032369
:102F4000F9E70223F7E700BFEB0090004641540089
:102F50002DE9FF4100230B600F461546FFF73EFFAA
:102F6000061EC0F213818C4B53F82640002C00F053
:102F70000F813C60237805F0FE056BB16078FFF7A8
:102F800009FEC10708D41DB110F0040500D00A25C0
:102F9000284604B0BDE8F0810023F0B223706070D1
:102FA000FFF702FEC20700F1F5800DB14307EED432
:102FB00000212046FFF792FF022840F0CB806F46A9
:102FC00004F5FB7304F236213A4613F8040C10B1F1
:102FD0001846FFF723FE10338B4242F8040BF4D15E
:102FE000002557F8046B002E00F0AB8031462046D8
:102FF000FFF774FF012800F2A580B4F83B30B3F569
:10300000007F40F0AB80B4F8461021B904F15400C1
:10301000FFF704FE014694F84030A1615A1E012AD0
:10302000A37000F29B8094F83D506581002D00F064
:1030300095806A1E2A4240F09180B4F84180A4F83D
:10304000088018F00F0F40F08980B4F8430018B9D9
:1030500004F15000FFF7E2FDE78F002F7ED001FB67
:1030600003FE07EB181CF444604577D3A0EB0C0279
:10307000AA42B2FBF5F371D34FF6F572934271D8C1
:1030800040F6F575AB428CBF02250125023337446B
:103090000CEB0602032D6361E6612762A26263D135
:1030A000B4F85A2052EA080258D104F15C00FFF744
:1030B000B5FD9B00606203F2FF13B1EB532F4DD3BC
:1030C0004FF0FF33C4E90333032D4FF08003237126
:1030D0002BD1B4F86030012B27D1711C2046FFF7AB
:1030E000E4FE10BBB4F82E2220714AF655239A4212
:1030F0001BD104F13000FFF791FD284B984214D109
:1031000004F50570FFF78AFD03F1FF5303F5005343
:103110002033984209D104F50670FFF77FFD206146
:1031200004F50770FFF77AFDE0601D4A25701388EB
:1031300001339BB2E380204613800025FFF718FE81
:1031400026E703200135042D7FF44BAF042805D179
:1031500001251DE70428FBD0012801D90D2517E71B
:1031600000264AE7032591E7B8F1000FF6D0022DBB
:103170004FEA430218BFD218774418BF03F0010387
:1031800067620CBF134603EB520394E70B25FFE67F
:103190000C25FDE60325FBE6B440002052526141B8
:1031A000D840002001292DE9F04706460C46174675
:1031B00073D943698B4270D90378022B3FD0032B1C
:1031C00050D0012B69D101EB5108016A01EB582164
:1031D000FFF76BFE054638BB06F1300908F1010A1E
:1031E000C8F3080814F001041FBF19F8083003F0F1
:1031F0000F023B0103F0F00314BF1343FBB209F8C5
:103200000830316A0123F37001EB5A213046FFF791
:103210004CFE054640B9CAF3080A44B1C7F3071784
:1032200009F80A700123F3702846BDE8F08719F801
:103230000A30C7F3032723F00F031F43F0E7016AA7
:1032400001EB1421FFF731FE05460028ECD16400A4
:1032500006F1300304F4FF7418191F55C7F307274C
:103260004770DFE7016A01EBD411FFF71EFE054648
:103270000028D9D1A40006F1300304F4FE741C44E4
:103280002046FFF7CBFC27F0704700F0704047EA7C
:1032900000012046FFF7C4FCC4E70225C4E7F8B5E7
:1032A0000446FFF7FCFD0546002842D12378032B96
:1032B00037D12779012F34D104F1300601464FF47C
:1032C000007230465523FFF7B3FC84F82E32AA2350
:1032D00084F82F3252234122722184F8303084F84E
:1032E0003130612384F8323084F8173284F8332087
:1032F00084F8141284F8151284F81622216904F552
:103300000670FFF78DFCE16804F50770FFF788FC95
:10331000E26960780132E2623B463146FFF762FCC7
:103320002571002260781146FFF76AFC003818BF4B
:103330000120F8BDF8B500230246451E1C462E2686
:1033400015F8010F202804F101040AD0052808BF50
:10335000E520092C02BFCF1801337E72CF1801334C
:1033600078720B2CECD10B4400205872D37A0B727C
:1033700002F11C00FFF752FC086002F11600FFF793
:103380004DFCC880000C8880F8BD03284B8B04BF1F
:103390008A8A43EA0243184670470129F8B506466F
:1033A0000C464ED9436999424BD20378022B29D05F
:1033B000032B34D0012B44D101EB5105016A01EB01
:1033C0005521FFF772FD10B14FF0FF30F8BD6F1CB3
:1033D000316AC5F30805354401EB5721304695F8AD
:1033E0003050FFF762FD0028EED1C7F308073E44D6
:1033F000E30796F8300045EA00204CBF0009C0F30F
:103400000B00E3E7016A01EB1421FFF74EFD0028F2
:10341000DAD1640004F4FF742644308ED6E7016AE2
:1034200001EBD411FFF741FD0028CDD1A40006F136
:10343000300004F4FE742044FFF7F0FB20F07040ED
:10344000C4E70120C2E7826838B5002305684361FC
:1034500004469AB92B78022B01D96B6A6BB92B8978
:103460000BB9022038BD6B6AE361E369A261002BEE
:10347000F7D0303525620020F4E71A466B8963B92E
:1034800011462068FFF789FF431C02460BD0012834
:10349000E7D96B699842F3D3E3E711462846FFF773
:1034A00075FCE061E1E70120DCE773B50C46012C17
:1034B0000568064611462CD96B69A34229D92AB161
:1034C0004FF0FF322846FFF76DFE40B921463068C5
:1034D0000194FFF762FF0199044610B9002002B081
:1034E00070BD012815D0431C15D000222846FFF7D7
:1034F00059FE0028F3D1D5E90432911E8B4205D242
:1035000001332B612B7943F001032B71A242DDD8EB
:10351000E4E70220E3E70120E1E72DE9F041056857
:1035200080460F4671B9EE68EEB16B69B34298BF41
:10353000012634466B690134A34217D8012E14D8F2
:10354000002406E02846FFF728FF0128044603D898
:1035500001242046BDE8F081431C30D06B698342D2
:10356000F7D83E46E5E70126E3E70224D8F8000055
:103570002146FFF712FF30B10128E9D001301ED0FB
:10358000B442D7D1DCE74FF0FF3221462846FFF79F
:1035900009FE90B957B9D5E90432023A9342EC607A
:1035A00010D92B7943F001032B71D2E7224639461B
:1035B0002846FFF7F7FD0028EDD00128C8D14FF0CD
:1035C000FF34C6E7013B2B61EBE743692DE9F04788
:1035D00003F12008C36905468A4693B1B8F5001F78
:1035E0000FD2C8F308090468B9F1000F4DD1816901
:1035F0000133C36139B92389B3EB581F45D8002380
:10360000EB6104200BE06789013F17EA58273CD1A2
:103610002046FFF7C2FE0128064602D80220BDE878
:10362000F087421C01D10120F9E76369834226D863
:10363000BAF1000FE3D0A9692846FFF76EFF0646EE
:10364000002835D00128E9D0431CECD02046FFF7F4
:1036500026FC01460028E6D104F130004FF4007248
:10366000FFF7E6FA31462046FFF790FB4FF0010ADC
:10367000E06263899F420FD3E36ADB1BE362AE61C2
:1036800031462046FFF782FBE86130344C44C5F8F0
:1036900014802C620020C2E784F803A02046FFF7C4
:1036A000D8FB0028BFD1E36A01330137E362E0E7CA
:1036B0000720B4E72DE9F843066881460C4611F867
:1036C000013B2F2BFAD05C2BF8D00023C9F808302F
:1036D00023781F2B5AD9544F09F124050B22284671
:1036E0002021FFF7A5FAC4F1020804F1FF3C0022F3
:1036F000082008EB0C011CF8013F202B08D92F2BC8
:1037000001D05C2B4CD1605C2F2847D05C2845D081
:103710000C44002A54D099F82420D9F80080E52AD6
:1037200004BF052289F82420212B34BF0423002361
:1037300089F82F304846FFF786FE002844D1D9F893
:103740001C104046FFF7B1FB00283DD1D9F82020DE
:103750001378002B43D0D37A03F03F0389F8063067
:10376000D37A13F008000CD102F10B0C294612F8A1
:10377000013B11F801EB9445A3EB0E0322D0002B83
:10378000F5D000214846FFF720FFD6E7802389F8CF
:103790002F304846BDE8F843FFF755BE0131B2E788
:1037A0002E2B33D090420BD9190648BF803BDFF84F
:1037B0007CE048BFFB5C1EF8011B61B38B42FAD171
:1037C00006200AE0002BDCD199F82F3048B10428FC
:1037D00003D113F0040F08BF0520BDE8F8830420CF
:1037E000F2E75A07F9D499F80630DB060CD5D9F878
:1037F0001410307806F13003C1F308011944FFF7C3
:10380000C4FDC9F8080067E70520E6E70B28D7D014
:1038100008220B206DE7A3F16101192901D8203B93
:10382000DBB2AB54013264E7D8480008C94800084D
:1038300070B506680546FFF706FE044628BBE96931
:103840003046FFF732FB0446F8B92B6A1B78E52BAC
:1038500014D1E9693046FFF728FB044660B90146F8
:103860002022286AFFF7E4F9286A0B2205F12401D7
:10387000FFF7E6FA0123F370204670BD002BE8D075
:1038800001212846FFF7A1FED7E7042C08BF072433
:10389000F2E7000030B585B0CDE9001003A8039130
:1038A0001446FFF79BFA011E17DB0E4D55F8210059
:1038B00018B1FFF75DFA00230370019808B10023E7
:1038C000037045F8210030B1012C08D1002201A974
:1038D0006846FFF73DFB05B030BD0B20FBE700203D
:1038E000F9E700BFB44000202DE9F04190B0174641
:1038F00001910446002800F0F28002F03F052A46BC
:1039000003A901A8FFF724FB064600285CD1039B0E
:103910000199049304A8FFF7CDFE58B99DF93F30F3
:10392000002B58DB15F03E0F14BF0121002104A825
:10393000FFF784F917F01C0F6DD000284DD0042834
:1039400042D1684B1A681AB11B69002B40F0C18044
:1039500004A8FFF76DFF002836D145F00805FEF7F3
:10396000EBFD014600900C980E30FFF759F90C98CA
:1039700000991630FFF754F90C9BDDF80C802022DB
:10398000DA720C9998F80000FFF7FFFC0022074656
:103990004046FFF717FA0C9B00221A775A779A775E
:1039A000DA77039B0121D97007B3394604A8D3F80D
:1039B0002C80FFF77AFD38B903984146FFF775FA76
:1039C000039B013FDF6088B1002323600646304639
:1039D00010B0BDE8F0810620ACE79DF8163013F07A
:1039E000110F22D17B0776D43F07B8D4039B280759
:1039F000DB6A636248BF45F0400515F0FE0F0C9B83
:103A0000A36214BF0121002104A8FFF751F920612E
:103A100068B90220D8E70028D6D19DF81630D8061C
:103A20005BD4BA07E2D5DF07E0D50720CCE7039FD8
:103A30000C993878FFF7A9FCA06001F11C00FFF792
:103A4000EDF80021FB88276004F13007E0604FF4B7
:103A50000072E162A380257561752162A16138461B
:103A6000FFF7E6F8AA06B2D5D4F80C80B8F1000F3B
:103A7000ADD0039BA1685D89C4F818806D024545EF
:103A800019D30020E16100289ED1C8F30803002B60
:103A90009DD0039D2846FFF779F90028B9D000EBA7
:103AA00058222262687801233946FFF78DF80028F2
:103AB0008DD0012088E72068FFF76FFC01280146C0
:103AC000A8EB050803D9431CD9D10120DAE702206D
:103AD000D8E7122078E7082076E7042074E7092663
:103AE00075E700BFB84000202DE9F04F994685B03A
:103AF00000238846C9F8003003A904461646FFF79C
:103B000085F9054650BB657D45BB237D9A0740F18D
:103B1000B080A369F34228BFDE4304F1300ACEB17E
:103B2000A169C1F30803002B40F09180039B5F89DA
:103B3000013F17EA512724D131B9A068A0B9014645
:103B40002046FFF7EAFC04E0E36A5BB12046FFF79A
:103B500028F948B9237D43F040032375284605B072
:103B6000BDE8F08FE169EBE7012802D10225657518
:103B7000F4E7431C01D10125F9E7A368E06103B92B
:103B8000A06094F91430002B0CDA0398226A407874
:103B900001235146FFF726F80028ECD1237D03F0DE
:103BA0007F032375DDF80CB0E1695846FFF7EEF8A6
:103BB0000028DBD0B6F5007F07EB000235D3BBF859
:103BC0000A1007EB562088424FEA56239BF8010063
:103BD00088BFCB1B4146CDE90023FFF703F800283F
:103BE000C9D1216A009A019B891A99420CD24FF4DB
:103BF000007208EB412150460093FFF721F9227D26
:103C0000009B02F07F0222755F02A369E2683B44D9
:103C1000A3619A422CBFE260E360D9F800303B44D4
:103C2000B844C9F80030F61B79E7236A93420DD0F7
:103C3000E168A369994209D99BF801000092012328
:103C40005146FEF7C1FF009A002894D12262A06974
:103C5000C0F30800C0F50077B74228BF37463A46A0
:103C600041465044FFF7ECF8237D63F07F03237552
:103C7000CBE7072572E7F7B501A90546FFF7C6F8B8
:103C8000044600283BD12B7D13F0400437D01B069F
:103C90000CD501982A6A4078012305F13001FEF71E
:103CA000A1FF78BB2B7D03F07F032B75FEF744FC4F
:103CB000696A07460198FFF7F8F80446F8B9AE6A52
:103CC000F37A43F02003F372AA6828683146FFF7BD
:103CD00079F8E96806F11C00FEF7A2FF394606F103
:103CE0001600FEF79DFF0198B4740123F474C370AD
:103CF000FFF7D5FA2B7D23F0400304462B752046B1
:103D000003B0F0BD0124FAE713B50446FFF7B3FF93
:103D100048B901A92046FFF779F820B92069FFF7D3
:103D200009F800B9206002B010BD30B58FB00D4663
:103D30000190002202A901A8FFF70AF9044688B9F8
:103D4000019902A8FFF7B6FC044658B99DF937302F
:103D5000002B0ADB35B1099B68721BB10A98294612
:103D6000FFF7E8FA20460FB030BD0624FAE72DE948
:103D7000F04F91B00222019003A901A8FFF7E8F8E3
:103D8000039B049304460546002840F09A8001995D
:103D900004A8FFF78FFC0446002800F09680042852
:103DA00040F08F80294604A8FFF7B7FB039A538998
:103DB0005B0207930546002857D0012857D0431CC3
:103DC00057D01046FFF76BF80446FEF7B5FB0746E1
:103DD000002C44D1DDF80C9029464846FEF7D6FF6A
:103DE00009F1300821464FF4007206464046FEF7BE
:103DF0001FFF10230B22202140462E24FEF718FF20
:103E000089F83B30394609F1460089F83040FEF721
:103E100007FF2A464146039809F1500AFEF7D2FFF0
:103E200020225046FFF70CF8039889F8514001789A
:103E3000069A032903D1416A914208BF00225146E4
:103E4000FEF7C0FF039BB3F80A904FF0010AB1449C
:103E50004E4510D104A8FFF7EBFC0446F0B1002258
:103E6000294604A8FFF721FB2BE00724ADE7022435
:103E7000ABE70124A9E70398C66280F803A0FEF728
:103E8000E8FF06F1010B04460028E8D101464FF493
:103E900000724046FEF7CCFE5E46D9E70C9C3946E0
:103EA00004F11600FEF7BCFE2A4621460398FEF7F1
:103EB00089FF03981023E3720123C370FFF7EFF922
:103EC0000446204611B0BDE8F08F0824F9E7000051
:103ED00030B50E4B5C7A054604F0FF00A4B95C7A5D
:103EE00018555C7A03EB840465605C7A1C4422728A
:103EF0005A7A541CE4B25C723A2330324B702F234E
:103F00000A708B70C87030BD0120FCE7DC400020D7
:103F10000022FFF7DDBF0000014B1868704700BFAB
:103F20002400002070B50D4D0D4C641BA41000261C
:103F3000A64209D10B4D0C4C00F0A2FC641BA4104E
:103F40000026A64205D170BD55F8043B98470136BE
:103F5000EEE755F8043B98470136F2E7944900082C
:103F6000944900089449000898490008024403460F
:103F7000934200D1704703F8011BF9E70CB430B548
:103F8000174B0C1E1D689DB008DA8B232B604FF079
:103F9000FF301DB0BDE8304002B070474FF40273EF
:103FA000ADF8143014BF04F1FF3323460493079394
:103FB0004FF6FF7302900690ADF81630209A21ABB1
:103FC00002A92846019300F069F8431CBCBF8B236B
:103FD0002B60002CDDD0029B00221A70D9E700BFB5
:103FE000240000202DE9F0478E689E4282460C4650
:103FF00090461F4638D88A8912F4906F32D02568CF
:104000000969A5EB0109656905EB450505EBD57562
:1040100001334B446D109D4238BF1D46530531D5C9
:10402000294600F063FB064650B90C23CAF800305D
:10403000A38943F04003A3814FF0FF30BDE8F08730
:1040400021694A4600F0BEFAA38923F4906343F045
:104050008003A381266165614E44A5EB09052660B6
:10406000A5603E46BE4200D93E46206832464146E3
:1040700000F0B6FAA3689B1BA36023683344236057
:104080000020DBE72A4600F0A5FB06460028E1D128
:104090002169504600F0BEFAC7E700002DE9F04F55
:1040A00098468B891B069DB007460D4614460ED5D3
:1040B0000B6963B9402100F019FB2860286120B921
:1040C0000C233B604FF0FF30D1E040236B610023B5
:1040D000099320238DF82930CDF80C803023DFF8A8
:1040E000A8818DF82A304FF0010923469A4613F82B
:1040F000012B0AB1252AF9D1BAEB040B0BD05B4690
:10410000224629463846FFF76DFF013000F0AA80AD
:10411000099A5A4409929AF80030002B00F0A280C4
:1041200000234FF0FF32CDE905230AF1010A049381
:1041300007938DF853301A935446052214F8011B47
:104140005148FCF74DF8049AD8B9D00644BF202353
:104150008DF85330110744BF2B238DF853309AF854
:1041600000302A2B15D0079A544600204FF00A0C35
:10417000214611F8013B303B092B4ED9B0B10792D3
:1041800014E0A0EB080309FA03F313430493A246D7
:10419000D2E7039B191D1B680391002BBBBF5B4239
:1041A00042F0020207930793B8BF049223782E2BA4
:1041B0000CD163782A2B35D1039B1A1D1B680392FF
:1041C000002BB8BF4FF0FF3302340593DFF8C8A0CF
:1041D000217803225046FCF703F840B14023A0EBBE
:1041E0000A0003FA00F0049B03430134049314F81B
:1041F000011B26488DF828100622FBF7F1FF002846
:1042000038D0234B1BBB039B073323F00703083332
:104210000393099B3344099367E70CFB02320C4676
:104220000120A5E700230134059319464FF00A0C3D
:10423000204610F8012B303A092A03D9002BC5D0AB
:104240000591C3E70CFB012104460123F0E703AB12
:1042500000932A460F4B04A93846AFF30080421C56
:104260000646D6D1AB895B063FF52CAF09981DB049
:10427000BDE8F08F03AB00932A46064B04A93846ED
:1042800000F07AF8EBE700BF5849000862490008DF
:1042900000000000E53F00085E4900082DE9F047F6
:1042A000164699468A680B69DDF820809342B8BFAC
:1042B0001346336091F8432007460C460AB1013398
:1042C00033602368990642BF336802333360256840
:1042D00015F0060506D104F1190AE36832689B1A45
:1042E000AB4226DC94F84320131E226818BF01233A
:1042F00092062BD404F1430249463846C0470130A8
:104300001ED02368E568326803F00603042B08BF5B
:10431000AD1AA36822690CBF25EAE5750025934212
:10432000C4BF9B1AED1800261A34B5421AD10020DA
:1043300008E00123524649463846C047013003D1C0
:104340004FF0FF30BDE8F0870135C6E7E1185A1C91
:10435000302081F84300224494F8451082F843103D
:104360000233C7E70123224649463846C047013099
:10437000E6D00136D9E700002DE9FF470F7E0C9DFE
:10438000782F914680460C469A4601F1430207D8A1
:10439000622F0AD8002F00F0D880582F00F0A38099
:1043A00004F1420584F842703AE0A7F16303152B4B
:1043B000F6D801A151F823F0114400082544000863
:1043C000A1430008A1430008A1430008A14300083D
:1043D00025440008A1430008A1430008A1430008A8
:1043E000A143000831450008554400081345000862
:1043F000A1430008A143000853450008A143000859
:1044000055440008A1430008A14300081B450008CB
:104410002B681A1D1B682A6004F1420584F842309B
:104420000123A3E020682968060601F104030AD5E8
:104430000E682B60002E03DA2D23764284F8433079
:104440005E480A2319E00E682B6010F0400F18BF79
:1044500036B2EFE72B682068191D2960010601D5E7
:104460001E6802E04606FBD51E8854486F2F0CBF1D
:1044700008230A23002184F843106568A560002DF5
:10448000A2BF216821F0040121600EB9002D4DD09A
:104490001546B6FBF3F103FB1167C75D05F8017D17
:1044A0003746BB420E46F4D9082B0BD12368DE07F2
:1044B00008D5236961689942DEBF302305F8013CC5
:1044C00005F1FF35521B2261CDF800A04B4603AA2F
:1044D00021464046FFF7E2FE01304CD14FF0FF305D
:1044E00004B0BDE8F087354881F845702968236835
:1044F00051F8046B29601D0614D5DF0744BF43F053
:10450000200323601EB9236823F0200323601023B7
:10451000B0E7236843F0200323607823284884F819
:104520004530E3E7590648BFB6B2E6E71546BBE7B4
:104530002B6826686169181D286035061B6801D53F
:10454000196002E07006FBD519800023236115462F
:10455000BAE72B681A1D2A601D6862680021284688
:10456000FBF73EFE08B1401B6060636823610023D7
:1045700084F84330A8E723692A4649464046D04795
:104580000130ABD023689B0713D4E068039B9842AB
:10459000B8BF1846A4E70123324649464046D047F3
:1045A00001309BD00135E36803995B1AAB42F2DC22
:1045B000EBE7002504F11906F5E700BF694900089B
:1045C0007A4900080A44914200F1FF3300D1704754
:1045D00010B511F8014B03F8014F9142F9D110BD0C
:1045E000884210B501EB020402D98442234607D861
:1045F000431EA14208D011F8012B03F8012FF8E760
:10460000024401468A4200D110BD13F8014D02F860
:10461000014DF7E737B5002944D051F8043C01902B
:10462000002BA1F10404B8BFE41800F013F91E4AEE
:104630000198136833B96360146003B0BDE830407B
:1046400000F00EB9A34208D9256861198B4201BF59
:1046500019685B6849192160EDE71A465B680BB180
:10466000A342FAD911685518A5420BD124682144F8
:104670005418A3421160E0D11C685B685360214468
:104680001160DAE702D90C230360D6E725686119C7
:104690008B4204BF19685B68636004BF49192160DD
:1046A0005460CAE703B030BDE840002070B50E4E3C
:1046B0000C463168054611B900F0BCF8306021465F
:1046C000284600F0B7F8431C0AD0C41C24F00304A9
:1046D000A04207D0211A284600F0ACF8013001D1E1
:1046E0004FF0FF34204670BDEC4000202DE9F04132
:1046F000CD1C25F0030508350C2D38BF0C25002DE9
:10470000074601DBA94205D90C233B600026304651
:10471000BDE8F0812E4E00F09DF833681C4634BB96
:1047200029463846FFF7C2FF431C04464DD1346882
:104730002646002E40D123683146384604EB030854
:1047400000F078F880453AD1216803356D1A25F0DC
:10475000030508350C2D38BF0C2529463846FFF7D0
:10476000A5FF01302BD023682B4423600EE0226884
:10477000521B1ED40B2A16D96119A342256018BFFB
:104780005960636808BF316062514B60384604F17C
:104790000B0600F065F826F00706231DF21AB6D0C6
:1047A0009B1BA350B3E76268A3420CBF32605A6000
:1047B000ECE723466468B2E734467668B9E70C2331
:1047C0003B60384600F04CF8A1E72560DEE700BF0B
:1047D000E84000202DE9F041804614460E4621B9FC
:1047E000BDE8F0411146FFF781BF2AB9FFF712FF7C
:1047F00025462846BDE8F08100F038F88442074697
:1048000002D8B4EB500F12D821464046FFF76EFF96
:1048100005460028EDD0BC422246314628BF3A4624
:10482000FFF7D0FE31464046FFF7F4FEE1E735469C
:10483000DFE7000038B5064D0023044608462B602C
:10484000FCF708FB431C02D12B6803B1236038BD81
:10485000F0400020014800F011B800BFF4400020F3
:10486000014800F00CB800BFF440002051F8043CAF
:10487000181F002BBCBF0B58C018704770477047FB
:10488000F8B500BFF8BC08BC9E467047F8B500BF3D
:08489000F8BC08BC9E4670470D
:10489800524157005241572F253034752E70676D9D
:1048A8000050350A313238203132360A3235350A6D
:1048B80000000000000000000001020304060708D1
:1048C80009222A2B2C3A3B3C3D3E3F5B5D7C7F0016
:1048D8004355454141414143454545494949414180
:1048E8004592924F4F4F5555594F554F9C4F9E9F4C
:1048F80041494F55A5A5A6A7A8A9AAABACADAEAF8F
:10490800B0B1B2B3B4414141B8B9BABBBCBDBEBF86
:10491800C0C1C2C3C4C54141C8C9CACBCCCDCECF22
:10492800D1D145454549494949D9DADBDCDD49DF7B
:104938004FE14F4F4F4FE6E8E85555555959EEEFBF
:10494800F0F1F2F3F4F5F6F7F8F9FAFBFCFDFEFFE7
:10495800232D302B2000686C4C0065666745464760
:1049680000303132333435363738394142434445E3
:104978004600303132333435363738396162636452
:044988006566000060
:08498C0024B9FF7F01000000C7
:04499400C501000851
:04499800A101000871
:10499C000024F40001000000100000003D25000878
:1049AC004125000845250008492500084D2500082B
:1049BC0001000000280000200000000000000000A2
:1049CC0000000000000000000000000000000000DB
:1049DC0000000000000000000000000000000000CB
:1049EC0000000000000000000000000000000000BB
:1049FC0000000000000000000000000000000000AB
:104A0C00000000000000000000000000000000009A
:084A1C00000000000000000092
:0400000508000EA938
:00000001FF
